S013000050726F6A656B745F6E65772E7372656389
S11300000C942A000C943F000C943F000C943F0085
S11300100C943F000C943F000C943F000C943F0060
S11300200C943F000C943F000C943F000C943F0050
S11300300C943F000C943F000C943F000C943F0040
S11300400C943F000C943F000C943F000C943F0030
S11300500C943F0011241FBECFE5D8E0DEBFCDBF16
S113006010E0A0E6B0E0E0E1F3E002C005900D92FC
S1130070AA36B107D9F70E940D010C9486010C949D
S11300800000DE9A0000DE980895CF93DF93D82F06
S1130090662311F0DC9A01C0DC98DD988AB38F6086
S11300A08ABBCBB3C07F8D2F82958F708C2B8BBB7B
S11300B00E944100DF70DC2BDBBB0E944100CF605B
S11300C0CBBBDF91CF910895882311F0DC9A01C056
S11300D0DC98DD9A8AB3807F8ABBDE9A000099B3EC
S11300E0DE980000DE9A000089B39295907F8F70AD
S11300F0DE98892B089580E00E9464008823DCF355
S113010000C000C080E00E9464000895CF93C82F0F
S11301100E947B0060E08C2F0E944500CF910895DF
S1130120611104C080580E948600089580540E9482
S11301308600089581E00E948600089582E00E946E
S113014086000895CF93C82F0E947B00CA3049F4DB
S1130150803410F480E401C080E080580E9486005E
S113016004C061E08C2F0E944500CF910895CF9385
S1130170DF93EC012196FC018081882329F00E9401
S1130180A20089918111FBCFDF91CF910895CF9384
S1130190C82F8AB38F678ABB8FE99FE00197F1F775
S11301A000C00000D99AD89A0E94410081EE94E0E0
S11301B00197F1F700C000000E94410095E19A9573
S11301C0F1F700000E94410085E18A95F1F70000F3
S11301D0D8980E94410095E19A95F1F7000088E2D1
S11301E00E94860088E00E9486000E949A0086E0B1
S11301F00E9486008C2F0E948600CF91089580E48F
S113020087B987E886B9089597B1892B87B9369A53
S11302103699FECF84B195B10895CF93DF93CDB7CE
S1130220DEB72A970FB6F894DEBF0FBECDBF0E948B
S1130230FF008EE00E94C7000E949A000E949E0068
S113024080E690E00E94B70083ED90E30197F1F718
S113025000C0000080E00E9404014AE050E0BE01BA
S11302606F5F7F4F0E94460160E089E00E9490002A
S1130270CE0101960E94B7009FE32DE083E09150E8
S113028020408040E1F700C00000E4CF4532510532
S113029020F4423010F00C945101FB011082CB0188
S11302A00895BB274A3031F4992322F4BDE2909596
S11302B081959F4F0C945D01BB27FB015527AA270D
S11302C0880F991FAA1FA41710F0A41B83955051DF
S11302D0B9F7A05DAA3308F0A95DA193009779F757
S11302E0B111B1931192CB010C947601DC01FC01A4
S11302F0672F71917723E1F7329704C07C916D9356
S113030070836291AE17BF07C8F30895F894FFCFC6
S10D03104F64637A7974203D2000E5
S9030000FC
